{
	"data": {
		"bytecode": {
			"linkReferences": {},
			"object": "60a06040523480156200001157600080fd5b5060405162001d9a38038062001d9a83398181016040528101906200003791906200013d565b8173ffffffffffffffffffffffffffffffffffffffff1660808173ffffffffffffffffffffffffffffffffffffffff1660601b815250508060048190555043600881905550505062000184565b600080fd5b600073ffffffffffffffffffffffffffffffffffffffff82169050919050565b6000620000b68262000089565b9050919050565b6000620000ca82620000a9565b9050919050565b620000dc81620000bd565b8114620000e857600080fd5b50565b600081519050620000fc81620000d1565b92915050565b6000819050919050565b620001178162000102565b81146200012357600080fd5b50565b60008151905062000137816200010c565b92915050565b6000806040838503121562000157576200015662000084565b5b60006200016785828601620000eb565b92505060206200017a8582860162000126565b9150509250929050565b60805160601c611be2620001b86000396000818161057501528181610b4701528181610dff01526113b30152611be26000f3fe608060405234801561001057600080fd5b50600436106101425760003560e01c806392cf1577116100b8578063b95c9d231161007c578063b95c9d231461031f578063c5fb862f1461033d578063cdcdb10e14610359578063daf8bc1014610363578063f40f0f521461037f578063fc0c546a146103af57610142565b806392cf15771461029f578063a35e6491146102bd578063a9f8d181146102db578063ab6a8b02146102f9578063b6b55f251461030357610142565b80633626a0e01161010a5780633626a0e0146101eb57806339a2a2a91461021d5780633a98ef391461023b57806344463d6e14610259578063853828b6146102775780638da5cb5b1461028157610142565b806301e336671461014757806308560ace146101635780631959a002146101815780631cbb9b28146101b35780632e1a7d4d146101cf575b600080fd5b610161600480360381019061015c91906114ac565b6103cd565b005b61016b6104f8565b604051610178919061150e565b60405180910390f35b61019b60048036038101906101969190611529565b6104fe565b6040516101aa93929190611556565b60405180910390f35b6101cd60048036038101906101c8919061158d565b610528565b005b6101e960048036038101906101e491906115cd565b610771565b005b610205600480360381019061020091906115fa565b610c39565b60405161021493929190611556565b60405180910390f35b610225610c80565b604051610232919061150e565b60405180910390f35b610243610c86565b604051610250919061150e565b60405180910390f35b610261610c8c565b60405161026e919061150e565b60405180910390f35b61027f610c92565b005b610289610cdf565b6040516102969190611649565b60405180910390f35b6102a7610d05565b6040516102b4919061150e565b60405180910390f35b6102c5610d0b565b6040516102d2919061167f565b60405180910390f35b6102e3610d1e565b6040516102f0919061150e565b60405180910390f35b610301610d24565b005b61031d600480360381019061031891906115cd565b610db2565b005b610327610fb1565b604051610334919061150e565b60405180910390f35b610357600480360381019061035291906115cd565b610fb7565b005b610361611059565b005b61037d6004803603810190610378919061158d565b611115565b005b61039960048036038101906103949190611529565b611127565b6040516103a6919061150e565b60405180910390f35b6103b76113b1565b6040516103c491906116f9565b60405180910390f35b600360009054906101000a900473ffffffffffffffffffffffffffffffffffffffff1673ffffffffffffffffffffffffffffffffffffffff163373ffffffffffffffffffffffffffffffffffffffff161461045d576040517f08c379a000000000000000000000000000000000000000000000000000000000815260040161045490611771565b60405180910390fd5b8273ffffffffffffffffffffffffffffffffffffffff1663a9059cbb83836040518363ffffffff1660e01b8152600401610498929190611791565b602060405180830381600087803b1580156104b257600080fd5b505af11580156104c6573d6000803e3d6000fd5b505050506040513d601f19601f820116820180604052508101906104ea91906117e6565b6104f357600080fd5b505050565b60095481565b60016020528060005260406000206000915090508060000154908060010154908060020154905083565b610530610d24565b60008111610573576040517f08c379a000000000000000000000000000000000000000000000000000000000815260040161056a9061185f565b60405180910390fd5b7f000000000000000000000000000000000000000000000000000000000000000073ffffffffffffffffffffffffffffffffffffffff166323b872dd3330846040518463ffffffff1660e01b81526004016105d09392919061187f565b602060405180830381600087803b1580156105ea57600080fd5b505af11580156105fe573d6000803e3d6000fd5b505050506040513d601f19601f8201168201806040525081019061062291906117e6565b610661576040517f08c379a0000000000000000000000000000000000000000000000000000000008152600401610658906118dc565b60405180910390fd5b6000806002541461068e576009546002548361067d919061192b565b61068791906119b4565b9050610692565b8190505b60008060003373ffffffffffffffffffffffffffffffffffffffff1673ffffffffffffffffffffffffffffffffffffffff16815260200190815260200160002090508060405180606001604052808681526020018481526020014381525090806001815401808255809150506001900390600052602060002090600302016000909190919091506000820151816000015560208201518160010155604082015181600201555050816002600082825461074b91906119e5565b92505081905550826009600082825461076491906119e5565b9250508190555050505050565b610779610d24565b6000806000600160003373ffffffffffffffffffffffffffffffffffffffff1673ffffffffffffffffffffffffffffffffffffffff168152602001908152602001600020905060008060003373ffffffffffffffffffffffffffffffffffffffff1673ffffffffffffffffffffffffffffffffffffffff168152602001908152602001600020905060005b81805490508110156108f35781818154811061082357610822611a3b565b5b90600052602060002090600302016001015482828154811061084857610847611a3b565b5b906000526020600020906003020160020154436108659190611a6a565b83838154811061087857610877611a3b565b5b906000526020600020906003020160000154610894919061192b565b61089e91906119b4565b93508181815481106108b3576108b2611a3b565b5b906000526020600020906003020160010154856108d091906119e5565b945080806108dd90611a9e565b91505080806108eb90611a9e565b915050610804565b50816002015483836000015461090991906119e5565b6109139190611a6a565b851115610955576040517f08c379a000000000000000000000000000000000000000000000000000000000815260040161094c90611b33565b60405180910390fd5b83858461096291906119e5565b11610987578482600201600082825461097b91906119e5565b925050819055506109b7565b838260020181905550838561099c9190611a6a565b8260000160008282546109af9190611a6a565b925050819055505b6000818054905090505b60008110610af3578181815481106109dc576109db611a3b565b5b906000526020600020906003020160000154828281548110610a0157610a00611a3b565b5b906000526020600020906003020160020154610a1d91906119e5565b4310158015610a545750818181548110610a3a57610a39611a3b565b5b906000526020600020906003020160010154836002015410155b15610adf5781805480610a6a57610a69611b53565b5b60019003818190600052602060002090600302016000808201600090556001820160009055600282016000905550509055818181548110610aae57610aad611a3b565b5b906000526020600020906003020160010154836002016000828254610ad39190611a6a565b92505081905550610aee565b8080610aea90611b82565b9150505b6109c1565b50600060025486600954610b07919061192b565b610b1191906119b4565b90508560026000828254610b259190611a6a565b925050819055508060096000828254610b3e9190611a6a565b925050819055507f000000000000000000000000000000000000000000000000000000000000000073ffffffffffffffffffffffffffffffffffffffff1663a9059cbb33836040518363ffffffff1660e01b8152600401610ba0929190611791565b602060405180830381600087803b158015610bba57600080fd5b505af1158015610bce573d6000803e3d6000fd5b505050506040513d601f19601f82011682018060405250810190610bf291906117e6565b610c31576040517f08c379a0000000000000000000000000000000000000000000000000000000008152600401610c28906118dc565b60405180910390fd5b505050505050565b60006020528160005260406000208181548110610c5557600080fd5b9060005260206000209060030201600091509150508060000154908060010154908060020154905083565b60065481565b60025481565b60055481565b610cdd600160003373ffffffffffffffffffffffffffffffffffffffff1673ffffffffffffffffffffffffffffffffffffffff16815260200190815260200160002060000154610771565b565b600360009054906101000a900473ffffffffffffffffffffffffffffffffffffffff1681565b60045481565b600a60009054906101000a900460ff1681565b60085481565b6000600454600654600954600554610d3c919061192b565b610d4691906119b4565b610d5091906119b4565b9050600060085443610d629190611a6a565b905060008282610d72919061192b565b90508060076000828254610d8691906119e5565b925050819055508060096000828254610d9f91906119e5565b9250508190555043600881905550505050565b610dba610d24565b60008111610dfd576040517f08c379a0000000000000000000000000000000000000000000000000000000008152600401610df49061185f565b60405180910390fd5b7f000000000000000000000000000000000000000000000000000000000000000073ffffffffffffffffffffffffffffffffffffffff166323b872dd3330846040518463ffffffff1660e01b8152600401610e5a9392919061187f565b602060405180830381600087803b158015610e7457600080fd5b505af1158015610e88573d6000803e3d6000fd5b505050506040513d601f19601f82011682018060405250810190610eac91906117e6565b610eeb576040517f08c379a0000000000000000000000000000000000000000000000000000000008152600401610ee2906118dc565b60405180910390fd5b60008060025414610f185760095460025483610f07919061192b565b610f1191906119b4565b9050610f1c565b8190505b6000600160003373ffffffffffffffffffffffffffffffffffffffff1673ffffffffffffffffffffffffffffffffffffffff168152602001908152602001600020905081816000016000828254610f7391906119e5565b925050819055508160026000828254610f8c91906119e5565b925050819055508260096000828254610fa591906119e5565b92505081905550505050565b60075481565b600360009054906101000a900473ffffffffffffffffffffffffffffffffffffffff1673ffffffffffffffffffffffffffffffffffffffff163373ffffffffffffffffffffffffffffffffffffffff1614611047576040517f08c379a000000000000000000000000000000000000000000000000000000000815260040161103e90611771565b60405180910390fd5b61104f610d24565b8060048190555050565b600360009054906101000a900473ffffffffffffffffffffffffffffffffffffffff1673ffffffffffffffffffffffffffffffffffffffff163373ffffffffffffffffffffffffffffffffffffffff16146110e9576040517f08c379a00000000000000000000000000000000000000000000000000000000081526004016110e090611771565b60405180910390fd5b600a60009054906101000a900460ff1615600a60006101000a81548160ff021916908315150217905550565b81600581905550806006819055505050565b60008060009050600080600160003373ffffffffffffffffffffffffffffffffffffffff1673ffffffffffffffffffffffffffffffffffffffff1681526020019081526020016000206040518060600160405290816000820154815260200160018201548152602001600282015481525050905060008060003373ffffffffffffffffffffffffffffffffffffffff1673ffffffffffffffffffffffffffffffffffffffff168152602001908152602001600020805480602002602001604051908101604052809291908181526020016000905b8282101561124b57838290600052602060002090600302016040518060600160405290816000820154815260200160018201548152602001600282015481525050815260200190600101906111fb565b50505050905060005b8151811015611328578181815181106112705761126f611a3b565b5b60200260200101516020015182828151811061128f5761128e611a3b565b5b602002602001015160400151436112a69190611a6a565b8383815181106112b9576112b8611a3b565b5b6020026020010151600001516112cf919061192b565b6112d991906119b4565b93508181815181106112ee576112ed611a3b565b5b6020026020010151602001518561130591906119e5565b9450808061131290611a9e565b915050808061132090611a9e565b915050611254565b506000600254600954600160008a73ffffffffffffffffffffffffffffffffffffffff1673ffffffffffffffffffffffffffffffffffffffff1681526020019081526020016000206000015461137e919061192b565b61138891906119b4565b90508260400151848261139b91906119e5565b6113a59190611a6a565b95505050505050919050565b7f000000000000000000000000000000000000000000000000000000000000000081565b600080fd5b600073ffffffffffffffffffffffffffffffffffffffff82169050919050565b6000611405826113da565b9050919050565b6000611417826113fa565b9050919050565b6114278161140c565b811461143257600080fd5b50565b6000813590506114448161141e565b92915050565b611453816113fa565b811461145e57600080fd5b50565b6000813590506114708161144a565b92915050565b6000819050919050565b61148981611476565b811461149457600080fd5b50565b6000813590506114a681611480565b92915050565b6000806000606084860312156114c5576114c46113d5565b5b60006114d386828701611435565b93505060206114e486828701611461565b92505060406114f586828701611497565b9150509250925092565b61150881611476565b82525050565b600060208201905061152360008301846114ff565b92915050565b60006020828403121561153f5761153e6113d5565b5b600061154d84828501611461565b91505092915050565b600060608201905061156b60008301866114ff565b61157860208301856114ff565b61158560408301846114ff565b949350505050565b600080604083850312156115a4576115a36113d5565b5b60006115b285828601611497565b92505060206115c385828601611497565b9150509250929050565b6000602082840312156115e3576115e26113d5565b5b60006115f184828501611497565b91505092915050565b60008060408385031215611611576116106113d5565b5b600061161f85828601611461565b925050602061163085828601611497565b9150509250929050565b611643816113fa565b82525050565b600060208201905061165e600083018461163a565b92915050565b60008115159050919050565b61167981611664565b82525050565b60006020820190506116946000830184611670565b92915050565b6000819050919050565b60006116bf6116ba6116b5846113da565b61169a565b6113da565b9050919050565b60006116d1826116a4565b9050919050565b60006116e3826116c6565b9050919050565b6116f3816116d8565b82525050565b600060208201905061170e60008301846116ea565b92915050565b600082825260208201905092915050565b7f6f776e65723a207775743f000000000000000000000000000000000000000000600082015250565b600061175b600b83611714565b915061176682611725565b602082019050919050565b6000602082019050818103600083015261178a8161174e565b9050919050565b60006040820190506117a6600083018561163a565b6117b360208301846114ff565b9392505050565b6117c381611664565b81146117ce57600080fd5b50565b6000815190506117e0816117ba565b92915050565b6000602082840312156117fc576117fb6113d5565b5b600061180a848285016117d1565b91505092915050565b7f4e6f7468696e6720746f206465706f7369740000000000000000000000000000600082015250565b6000611849601283611714565b915061185482611813565b602082019050919050565b600060208201905081810360008301526118788161183c565b9050919050565b6000606082019050611894600083018661163a565b6118a1602083018561163a565b6118ae60408301846114ff565b949350505050565b50565b60006118c6600083611714565b91506118d1826118b6565b600082019050919050565b600060208201905081810360008301526118f5816118b9565b9050919050565b7f4e487b7100000000000000000000000000000000000000000000000000000000600052601160045260246000fd5b600061193682611476565b915061194183611476565b9250817fffffffffffffffffffffffffffffffffffffffffffffffffffffffffffffffff048311821515161561197a576119796118fc565b5b828202905092915050565b7f4e487b7100000000000000000000000000000000000000000000000000000000600052601260045260246000fd5b60006119bf82611476565b91506119ca83611476565b9250826119da576119d9611985565b5b828204905092915050565b60006119f082611476565b91506119fb83611476565b9250827fffffffffffffffffffffffffffffffffffffffffffffffffffffffffffffffff03821115611a3057611a2f6118fc565b5b828201905092915050565b7f4e487b7100000000000000000000000000000000000000000000000000000000600052603260045260246000fd5b6000611a7582611476565b9150611a8083611476565b925082821015611a9357611a926118fc565b5b828203905092915050565b6000611aa982611476565b91507fffffffffffffffffffffffffffffffffffffffffffffffffffffffffffffffff821415611adc57611adb6118fc565b5b600182019050919050565b7f576974686472617720616d6f756e7420657863656564732062616c616e636500600082015250565b6000611b1d601f83611714565b9150611b2882611ae7565b602082019050919050565b60006020820190508181036000830152611b4c81611b10565b9050919050565b7f4e487b7100000000000000000000000000000000000000000000000000000000600052603160045260246000fd5b6000611b8d82611476565b91506000821415611ba157611ba06118fc565b5b60018203905091905056fea264697066735822122085d1a73cb0188610bfb715e3b9297c30c2bfec8c0d7be1aa0525dbaae439418964736f6c63430008080033",
			"opcodes": "PUSH1 0xA0 PUSH1 0x40 MSTORE CALLVALUE DUP1 ISZERO PUSH3 0x11 JUMPI PUSH1 0x0 DUP1 REVERT JUMPDEST POP PUSH1 0x40 MLOAD PUSH3 0x1D9A CODESIZE SUB DUP1 PUSH3 0x1D9A DUP4 CODECOPY DUP2 DUP2 ADD PUSH1 0x40 MSTORE DUP2 ADD SWAP1 PUSH3 0x37 SWAP2 SWAP1 PUSH3 0x13D JUMP JUMPDEST DUP2 PUSH20 0xFFFFFFFFFFFFFFFFFFFFFFFFFFFFFFFFFFFFFFFF AND PUSH1 0x80 DUP2 PUSH20 0xFFFFFFFFFFFFFFFFFFFFFFFFFFFFFFFFFFFFFFFF AND PUSH1 0x60 SHL DUP2 MSTORE POP POP DUP1 PUSH1 0x4 DUP2 SWAP1 SSTORE POP NUMBER PUSH1 0x8 DUP2 SWAP1 SSTORE POP POP POP PUSH3 0x184 JUMP JUMPDEST PUSH1 0x0 DUP1 REVERT JUMPDEST PUSH1 0x0 PUSH20 0xFFFFFFFFFFFFFFFFFFFFFFFFFFFFFFFFFFFFFFFF DUP3 AND SWAP1 POP SWAP2 SWAP1 POP JUMP JUMPDEST PUSH1 0x0 PUSH3 0xB6 DUP3 PUSH3 0x89 JUMP JUMPDEST SWAP1 POP SWAP2 SWAP1 POP JUMP JUMPDEST PUSH1 0x0 PUSH3 0xCA DUP3 PUSH3 0xA9 JUMP JUMPDEST SWAP1 POP SWAP2 SWAP1 POP JUMP JUMPDEST PUSH3 0xDC DUP2 PUSH3 0xBD JUMP JUMPDEST DUP2 EQ PUSH3 0xE8 JUMPI PUSH1 0x0 DUP1 REVERT JUMPDEST POP JUMP JUMPDEST PUSH1 0x0 DUP2 MLOAD SWAP1 POP PUSH3 0xFC DUP2 PUSH3 0xD1 JUMP JUMPDEST SWAP3 SWAP2 POP POP JUMP JUMPDEST PUSH1 0x0 DUP2 SWAP1 POP SWAP2 SWAP1 POP JUMP JUMPDEST PUSH3 0x117 DUP2 PUSH3 0x102 JUMP JUMPDEST DUP2 EQ PUSH3 0x123 JUMPI PUSH1 0x0 DUP1 REVERT JUMPDEST POP JUMP JUMPDEST PUSH1 0x0 DUP2 MLOAD SWAP1 POP PUSH3 0x137 DUP2 PUSH3 0x10C JUMP JUMPDEST SWAP3 SWAP2 POP POP JUMP JUMPDEST PUSH1 0x0 DUP1 PUSH1 0x40 DUP4 DUP6 SUB SLT ISZERO PUSH3 0x157 JUMPI PUSH3 0x156 PUSH3 0x84 JUMP JUMPDEST JUMPDEST PUSH1 0x0 PUSH3 0x167 DUP6 DUP3 DUP7 ADD PUSH3 0xEB JUMP JUMPDEST SWAP3 POP POP PUSH1 0x20 PUSH3 0x17A DUP6 DUP3 DUP7 ADD PUSH3 0x126 JUMP JUMPDEST SWAP2 POP POP SWAP3 POP SWAP3 SWAP1 POP JUMP JUMPDEST PUSH1 0x80 MLOAD PUSH1 0x60 SHR PUSH2 0x1BE2 PUSH3 0x1B8 PUSH1 0x0 CODECOPY PUSH1 0x0 DUP2 DUP2 PUSH2 0x575 ADD MSTORE DUP2 DUP2 PUSH2 0xB47 ADD MSTORE DUP2 DUP2 PUSH2 0xDFF ADD MSTORE PUSH2 0x13B3 ADD MSTORE PUSH2 0x1BE2 PUSH1 0x0 RETURN INVALID PUSH1 0x80 PUSH1 0x40 MSTORE CALLVALUE DUP1 ISZERO PUSH2 0x10 JUMPI PUSH1 0x0 DUP1 REVERT JUMPDEST POP PUSH1 0x4 CALLDATASIZE LT PUSH2 0x142 JUMPI PUSH1 0x0 CALLDATALOAD PUSH1 0xE0 SHR DUP1 PUSH4 0x92CF1577 GT PUSH2 0xB8 JUMPI DUP1 PUSH4 0xB95C9D23 GT PUSH2 0x7C JUMPI DUP1 PUSH4 0xB95C9D23 EQ PUSH2 0x31F JUMPI DUP1 PUSH4 0xC5FB862F EQ PUSH2 0x33D JUMPI DUP1 PUSH4 0xCDCDB10E EQ PUSH2 0x359 JUMPI DUP1 PUSH4 0xDAF8BC10 EQ PUSH2 0x363 JUMPI DUP1 PUSH4 0xF40F0F52 EQ PUSH2 0x37F JUMPI DUP1 PUSH4 0xFC0C546A EQ PUSH2 0x3AF JUMPI PUSH2 0x142 JUMP JUMPDEST DUP1 PUSH4 0x92CF1577 EQ PUSH2 0x29F JUMPI DUP1 PUSH4 0xA35E6491 EQ PUSH2 0x2BD JUMPI DUP1 PUSH4 0xA9F8D181 EQ PUSH2 0x2DB JUMPI DUP1 PUSH4 0xAB6A8B02 EQ PUSH2 0x2F9 JUMPI DUP1 PUSH4 0xB6B55F25 EQ PUSH2 0x303 JUMPI PUSH2 0x142 JUMP JUMPDEST DUP1 PUSH4 0x3626A0E0 GT PUSH2 0x10A JUMPI DUP1 PUSH4 0x3626A0E0 EQ PUSH2 0x1EB JUMPI DUP1 PUSH4 0x39A2A2A9 EQ PUSH2 0x21D JUMPI DUP1 PUSH4 0x3A98EF39 EQ PUSH2 0x23B JUMPI DUP1 PUSH4 0x44463D6E EQ PUSH2 0x259 JUMPI DUP1 PUSH4 0x853828B6 EQ PUSH2 0x277 JUMPI DUP1 PUSH4 0x8DA5CB5B EQ PUSH2 0x281 JUMPI PUSH2 0x142 JUMP JUMPDEST DUP1 PUSH4 0x1E33667 EQ PUSH2 0x147 JUMPI DUP1 PUSH4 0x8560ACE EQ PUSH2 0x163 JUMPI DUP1 PUSH4 0x1959A002 EQ PUSH2 0x181 JUMPI DUP1 PUSH4 0x1CBB9B28 EQ PUSH2 0x1B3 JUMPI DUP1 PUSH4 0x2E1A7D4D EQ PUSH2 0x1CF JUMPI JUMPDEST PUSH1 0x0 DUP1 REVERT JUMPDEST PUSH2 0x161 PUSH1 0x4 DUP1 CALLDATASIZE SUB DUP2 ADD SWAP1 PUSH2 0x15C SWAP2 SWAP1 PUSH2 0x14AC JUMP JUMPDEST PUSH2 0x3CD JUMP JUMPDEST STOP JUMPDEST PUSH2 0x16B PUSH2 0x4F8 JUMP JUMPDEST PUSH1 0x40 MLOAD PUSH2 0x178 SWAP2 SWAP1 PUSH2 0x150E JUMP JUMPDEST PUSH1 0x40 MLOAD DUP1 SWAP2 SUB SWAP1 RETURN JUMPDEST PUSH2 0x19B PUSH1 0x4 DUP1 CALLDATASIZE SUB DUP2 ADD SWAP1 PUSH2 0x196 SWAP2 SWAP1 PUSH2 0x1529 JUMP JUMPDEST PUSH2 0x4FE JUMP JUMPDEST PUSH1 0x40 MLOAD PUSH2 0x1AA SWAP4 SWAP3 SWAP2 SWAP1 PUSH2 0x1556 JUMP JUMPDEST PUSH1 0x40 MLOAD DUP1 SWAP2 SUB SWAP1 RETURN JUMPDEST PUSH2 0x1CD PUSH1 0x4 DUP1 CALLDATASIZE SUB DUP2 ADD SWAP1 PUSH2 0x1C8 SWAP2 SWAP1 PUSH2 0x158D JUMP JUMPDEST PUSH2 0x528 JUMP JUMPDEST STOP JUMPDEST PUSH2 0x1E9 PUSH1 0x4 DUP1 CALLDATASIZE SUB DUP2 ADD SWAP1 PUSH2 0x1E4 SWAP2 SWAP1 PUSH2 0x15CD JUMP JUMPDEST PUSH2 0x771 JUMP JUMPDEST STOP JUMPDEST PUSH2 0x205 PUSH1 0x4 DUP1 CALLDATASIZE SUB DUP2 ADD SWAP1 PUSH2 0x200 SWAP2 SWAP1 PUSH2 0x15FA JUMP JUMPDEST PUSH2 0xC39 JUMP JUMPDEST PUSH1 0x40 MLOAD PUSH2 0x214 SWAP4 SWAP3 SWAP2 SWAP1 PUSH2 0x1556 JUMP JUMPDEST PUSH1 0x40 MLOAD DUP1 SWAP2 SUB SWAP1 RETURN JUMPDEST PUSH2 0x225 PUSH2 0xC80 JUMP JUMPDEST PUSH1 0x40 MLOAD PUSH2 0x232 SWAP2 SWAP1 PUSH2 0x150E JUMP JUMPDEST PUSH1 0x40 MLOAD DUP1 SWAP2 SUB SWAP1 RETURN JUMPDEST PUSH2 0x243 PUSH2 0xC86 JUMP JUMPDEST PUSH1 0x40 MLOAD PUSH2 0x250 SWAP2 SWAP1 PUSH2 0x150E JUMP JUMPDEST PUSH1 0x40 MLOAD DUP1 SWAP2 SUB SWAP1 RETURN JUMPDEST PUSH2 0x261 PUSH2 0xC8C JUMP JUMPDEST PUSH1 0x40 MLOAD PUSH2 0x26E SWAP2 SWAP1 PUSH2 0x150E JUMP JUMPDEST PUSH1 0x40 MLOAD DUP1 SWAP2 SUB SWAP1 RETURN JUMPDEST PUSH2 0x27F PUSH2 0xC92 JUMP JUMPDEST STOP JUMPDEST PUSH2 0x289 PUSH2 0xCDF JUMP JUMPDEST PUSH1 0x40 MLOAD PUSH2 0x296 SWAP2 SWAP1 PUSH2 0x1649 JUMP JUMPDEST PUSH1 0x40 MLOAD DUP1 SWAP2 SUB SWAP1 RETURN JUMPDEST PUSH2 0x2A7 PUSH2 0xD05 JUMP JUMPDEST PUSH1 0x40 MLOAD PUSH2 0x2B4 SWAP2 SWAP1 PUSH2 0x150E JUMP JUMPDEST PUSH1 0x40 MLOAD DUP1 SWAP2 SUB SWAP1 RETURN JUMPDEST PUSH2 0x2C5 PUSH2 0xD0B JUMP JUMPDEST PUSH1 0x40 MLOAD PUSH2 0x2D2 SWAP2 SWAP1 PUSH2 0x167F JUMP JUMPDEST PUSH1 0x40 MLOAD DUP1 SWAP2 SUB SWAP1 RETURN JUMPDEST PUSH2 0x2E3 PUSH2 0xD1E JUMP JUMPDEST PUSH1 0x40 MLOAD PUSH2 0x2F0 SWAP2 SWAP1 PUSH2 0x150E JUMP JUMPDEST PUSH1 0x40 MLOAD DUP1 SWAP2 SUB SWAP1 RETURN JUMPDEST PUSH2 0x301 PUSH2 0xD24 JUMP JUMPDEST STOP JUMPDEST PUSH2 0x31D PUSH1 0x4 DUP1 CALLDATASIZE SUB DUP2 ADD SWAP1 PUSH2 0x318 SWAP2 SWAP1 PUSH2 0x15CD JUMP JUMPDEST PUSH2 0xDB2 JUMP JUMPDEST STOP JUMPDEST PUSH2 0x327 PUSH2 0xFB1 JUMP JUMPDEST PUSH1 0x40 MLOAD PUSH2 0x334 SWAP2 SWAP1 PUSH2 0x150E JUMP JUMPDEST PUSH1 0x40 MLOAD DUP1 SWAP2 SUB SWAP1 RETURN JUMPDEST PUSH2 0x357 PUSH1 0x4 DUP1 CALLDATASIZE SUB DUP2 ADD SWAP1 PUSH2 0x352 SWAP2 SWAP1 PUSH2 0x15CD JUMP JUMPDEST PUSH2 0xFB7 JUMP JUMPDEST STOP JUMPDEST PUSH2 0x361 PUSH2 0x1059 JUMP JUMPDEST STOP JUMPDEST PUSH2 0x37D PUSH1 0x4 DUP1 CALLDATASIZE SUB DUP2 ADD SWAP1 PUSH2 0x378 SWAP2 SWAP1 PUSH2 0x158D JUMP JUMPDEST PUSH2 0x1115 JUMP JUMPDEST STOP JUMPDEST PUSH2 0x399 PUSH1 0x4 DUP1 CALLDATASIZE SUB DUP2 ADD SWAP1 PUSH2 0x394 SWAP2 SWAP1 PUSH2 0x1529 JUMP JUMPDEST PUSH2 0x1127 JUMP JUMPDEST PUSH1 0x40 MLOAD PUSH2 0x3A6 SWAP2 SWAP1 PUSH2 0x150E JUMP JUMPDEST PUSH1 0x40 MLOAD DUP1 SWAP2 SUB SWAP1 RETURN JUMPDEST PUSH2 0x3B7 PUSH2 0x13B1 JUMP JUMPDEST PUSH1 0x40 MLOAD PUSH2 0x3C4 SWAP2 SWAP1 PUSH2 0x16F9 JUMP JUMPDEST PUSH1 0x40 MLOAD DUP1 SWAP2 SUB SWAP1 RETURN JUMPDEST PUSH1 0x3 PUSH1 0x0 SWAP1 SLOAD SWAP1 PUSH2 0x100 EXP SWAP1 DIV PUSH20 0xFFFFFFFFFFFFFFFFFFFFFFFFFFFFFFFFFFFFFFFF AND PUSH20 0xFFFFFFFFFFFFFFFFFFFFFFFFFFFFFFFFFFFFFFFF AND CALLER PUSH20 0xFFFFFFFFFFFFFFFFFFFFFFFFFFFFFFFFFFFFFFFF AND EQ PUSH2 0x45D JUMPI PUSH1 0x40 MLOAD PUSH32 0x8C379A000000000000000000000000000000000000000000000000000000000 DUP2 MSTORE PUSH1 0x4 ADD PUSH2 0x454 SWAP1 PUSH2 0x1771 JUMP JUMPDEST PUSH1 0x40 MLOAD DUP1 SWAP2 SUB SWAP1 REVERT JUMPDEST DUP3 PUSH20 0xFFFFFFFFFFFFFFFFFFFFFFFFFFFFFFFFFFFFFFFF AND PUSH4 0xA9059CBB DUP4 DUP4 PUSH1 0x40 MLOAD DUP4 PUSH4 0xFFFFFFFF AND PUSH1 0xE0 SHL DUP2 MSTORE PUSH1 0x4 ADD PUSH2 0x498 SWAP3 SWAP2 SWAP1 PUSH2 0x1791 JUMP JUMPDEST PUSH1 0x20 PUSH1 0x40 MLOAD DUP1 DUP4 SUB DUP2 PUSH1 0x0 DUP8 DUP1 EXTCODESIZE ISZERO DUP1 ISZERO PUSH2 0x4B2 JUMPI PUSH1 0x0 DUP1 REVERT JUMPDEST POP GAS CALL ISZERO DUP1 ISZERO PUSH2 0x4C6 JUMPI RETURNDATASIZE PUSH1 0x0 DUP1 RETURNDATACOPY RETURNDATASIZE PUSH1 0x0 REVERT JUMPDEST POP POP POP POP PUSH1 0x40 MLOAD RETURNDATASIZE PUSH1 0x1F NOT PUSH1 0x1F DUP3 ADD AND DUP3 ADD DUP1 PUSH1 0x40 MSTORE POP DUP2 ADD SWAP1 PUSH2 0x4EA SWAP2 SWAP1 PUSH2 0x17E6 JUMP JUMPDEST PUSH2 0x4F3 JUMPI PUSH1 0x0 DUP1 REVERT JUMPDEST POP POP POP JUMP JUMPDEST PUSH1 0x9 SLOAD DUP2 JUMP JUMPDEST PUSH1 0x1 PUSH1 0x20 MSTORE DUP1 PUSH1 0x0 MSTORE PUSH1 0x40 PUSH1 0x0 KECCAK256 PUSH1 0x0 SWAP2 POP SWAP1 POP DUP1 PUSH1 0x0 ADD SLOAD SWAP1 DUP1 PUSH1 0x1 ADD SLOAD SWAP1 DUP1 PUSH1 0x2 ADD SLOAD SWAP1 POP DUP4 JUMP JUMPDEST PUSH2 0x530 PUSH2 0xD24 JUMP JUMPDEST PUSH1 0x0 DUP2 GT PUSH2 0x573 JUMPI PUSH1 0x40 MLOAD PUSH32 0x8C379A000000000000000000000000000000000000000000000000000000000 DUP2 MSTORE PUSH1 0x4 ADD PUSH2 0x56A SWAP1 PUSH2 0x185F JUMP JUMPDEST PUSH1 0x40 MLOAD DUP1 SWAP2 SUB SWAP1 REVERT JUMPDEST PUSH32 0x0 PUSH20 0xFFFFFFFFFFFFFFFFFFFFFFFFFFFFFFFFFFFFFFFF AND PUSH4 0x23B872DD CALLER ADDRESS DUP5 PUSH1 0x40 MLOAD DUP5 PUSH4 0xFFFFFFFF AND PUSH1 0xE0 SHL DUP2 MSTORE PUSH1 0x4 ADD PUSH2 0x5D0 SWAP4 SWAP3 SWAP2 SWAP1 PUSH2 0x187F JUMP JUMPDEST PUSH1 0x20 PUSH1 0x40 MLOAD DUP1 DUP4 SUB DUP2 PUSH1 0x0 DUP8 DUP1 EXTCODESIZE ISZERO DUP1 ISZERO PUSH2 0x5EA JUMPI PUSH1 0x0 DUP1 REVERT JUMPDEST POP GAS CALL ISZERO DUP1 ISZERO PUSH2 0x5FE JUMPI RETURNDATASIZE PUSH1 0x0 DUP1 RETURNDATACOPY RETURNDATASIZE PUSH1 0x0 REVERT JUMPDEST POP POP POP POP PUSH1 0x40 MLOAD RETURNDATASIZE PUSH1 0x1F NOT PUSH1 0x1F DUP3 ADD AND DUP3 ADD DUP1 PUSH1 0x40 MSTORE POP DUP2 ADD SWAP1 PUSH2 0x622 SWAP2 SWAP1 PUSH2 0x17E6 JUMP JUMPDEST PUSH2 0x661 JUMPI PUSH1 0x40 MLOAD PUSH32 0x8C379A000000000000000000000000000000000000000000000000000000000 DUP2 MSTORE PUSH1 0x4 ADD PUSH2 0x658 SWAP1 PUSH2 0x18DC JUMP JUMPDEST PUSH1 0x40 MLOAD DUP1 SWAP2 SUB SWAP1 REVERT JUMPDEST PUSH1 0x0 DUP1 PUSH1 0x2 SLOAD EQ PUSH2 0x68E JUMPI PUSH1 0x9 SLOAD PUSH1 0x2 SLOAD DUP4 PUSH2 0x67D SWAP2 SWAP1 PUSH2 0x192B JUMP JUMPDEST PUSH2 0x687 SWAP2 SWAP1 PUSH2 0x19B4 JUMP JUMPDEST SWAP1 POP PUSH2 0x692 JUMP JUMPDEST DUP2 SWAP1 POP JUMPDEST PUSH1 0x0 DUP1 PUSH1 0x0 CALLER PUSH20 0xFFFFFFFFFFFFFFFFFFFFFFFFFFFFFFFFFFFFFFFF AND PUSH20 0xFFFFFFFFFFFFFFFFFFFFFFFFFFFFFFFFFFFFFFFF AND DUP2 MSTORE PUSH1 0x20 ADD SWAP1 DUP2 MSTORE PUSH1 0x20 ADD PUSH1 0x0 KECCAK256 SWAP1 POP DUP1 PUSH1 0x40 MLOAD DUP1 PUSH1 0x60 ADD PUSH1 0x40 MSTORE DUP1 DUP7 DUP2 MSTORE PUSH1 0x20 ADD DUP5 DUP2 MSTORE PUSH1 0x20 ADD NUMBER DUP2 MSTORE POP SWAP1 DUP1 PUSH1 0x1 DUP2 SLOAD ADD DUP1 DUP3 SSTORE DUP1 SWAP2 POP POP PUSH1 0x1 SWAP1 SUB SWAP1 PUSH1 0x0 MSTORE PUSH1 0x20 PUSH1 0x0 KECCAK256 SWAP1 PUSH1 0x3 MUL ADD PUSH1 0x0 SWAP1 SWAP2 SWAP1 SWAP2 SWAP1 SWAP2 POP PUSH1 0x0 DUP3 ADD MLOAD DUP2 PUSH1 0x0 ADD SSTORE PUSH1 0x20 DUP3 ADD MLOAD DUP2 PUSH1 0x1 ADD SSTORE PUSH1 0x40 DUP3 ADD MLOAD DUP2 PUSH1 0x2 ADD SSTORE POP POP DUP2 PUSH1 0x2 PUSH1 0x0 DUP3 DUP3 SLOAD PUSH2 0x74B SWAP2 SWAP1 PUSH2 0x19E5 JUMP JUMPDEST SWAP3 POP POP DUP2 SWAP1 SSTORE POP DUP3 PUSH1 0x9 PUSH1 0x0 DUP3 DUP3 SLOAD PUSH2 0x764 SWAP2 SWAP1 PUSH2 0x19E5 JUMP JUMPDEST SWAP3 POP POP DUP2 SWAP1 SSTORE POP POP POP POP POP JUMP JUMPDEST PUSH2 0x779 PUSH2 0xD24 JUMP JUMPDEST PUSH1 0x0 DUP1 PUSH1 0x0 PUSH1 0x1 PUSH1 0x0 CALLER PUSH20 0xFFFFFFFFFFFFFFFFFFFFFFFFFFFFFFFFFFFFFFFF AND PUSH20 0xFFFFFFFFFFFFFFFFFFFFFFFFFFFFFFFFFFFFFFFF AND DUP2 MSTORE PUSH1 0x20 ADD SWAP1 DUP2 MSTORE PUSH1 0x20 ADD PUSH1 0x0 KECCAK256 SWAP1 POP PUSH1 0x0 DUP1 PUSH1 0x0 CALLER PUSH20 0xFFFFFFFFFFFFFFFFFFFFFFFFFFFFFFFFFFFFFFFF AND PUSH20 0xFFFFFFFFFFFFFFFFFFFFFFFFFFFFFFFFFFFFFFFF AND DUP2 MSTORE PUSH1 0x20 ADD SWAP1 DUP2 MSTORE PUSH1 0x20 ADD PUSH1 0x0 KECCAK256 SWAP1 POP PUSH1 0x0 JUMPDEST DUP2 DUP1 SLOAD SWAP1 POP DUP2 LT ISZERO PUSH2 0x8F3 JUMPI DUP2 DUP2 DUP2 SLOAD DUP2 LT PUSH2 0x823 JUMPI PUSH2 0x822 PUSH2 0x1A3B JUMP JUMPDEST JUMPDEST SWAP1 PUSH1 0x0 MSTORE PUSH1 0x20 PUSH1 0x0 KECCAK256 SWAP1 PUSH1 0x3 MUL ADD PUSH1 0x1 ADD SLOAD DUP3 DUP3 DUP2 SLOAD DUP2 LT PUSH2 0x848 JUMPI PUSH2 0x847 PUSH2 0x1A3B JUMP JUMPDEST JUMPDEST SWAP1 PUSH1 0x0 MSTORE PUSH1 0x20 PUSH1 0x0 KECCAK256 SWAP1 PUSH1 0x3 MUL ADD PUSH1 0x2 ADD SLOAD NUMBER PUSH2 0x865 SWAP2 SWAP1 PUSH2 0x1A6A JUMP JUMPDEST DUP4 DUP4 DUP2 SLOAD DUP2 LT PUSH2 0x878 JUMPI PUSH2 0x877 PUSH2 0x1A3B JUMP JUMPDEST JUMPDEST SWAP1 PUSH1 0x0 MSTORE PUSH1 0x20 PUSH1 0x0 KECCAK256 SWAP1 PUSH1 0x3 MUL ADD PUSH1 0x0 ADD SLOAD PUSH2 0x894 SWAP2 SWAP1 PUSH2 0x192B JUMP JUMPDEST PUSH2 0x89E SWAP2 SWAP1 PUSH2 0x19B4 JUMP JUMPDEST SWAP4 POP DUP2 DUP2 DUP2 SLOAD DUP2 LT PUSH2 0x8B3 JUMPI PUSH2 0x8B2 PUSH2 0x1A3B JUMP JUMPDEST JUMPDEST SWAP1 PUSH1 0x0 MSTORE PUSH1 0x20 PUSH1 0x0 KECCAK256 SWAP1 PUSH1 0x3 MUL ADD PUSH1 0x1 ADD SLOAD DUP6 PUSH2 0x8D0 SWAP2 SWAP1 PUSH2 0x19E5 JUMP JUMPDEST SWAP5 POP DUP1 DUP1 PUSH2 0x8DD SWAP1 PUSH2 0x1A9E JUMP JUMPDEST SWAP2 POP POP DUP1 DUP1 PUSH2 0x8EB SWAP1 PUSH2 0x1A9E JUMP JUMPDEST SWAP2 POP POP PUSH2 0x804 JUMP JUMPDEST POP DUP2 PUSH1 0x2 ADD SLOAD DUP4 DUP4 PUSH1 0x0 ADD SLOAD PUSH2 0x909 SWAP2 SWAP1 PUSH2 0x19E5 JUMP JUMPDEST PUSH2 0x913 SWAP2 SWAP1 PUSH2 0x1A6A JUMP JUMPDEST DUP6 GT ISZERO PUSH2 0x955 JUMPI PUSH1 0x40 MLOAD PUSH32 0x8C379A000000000000000000000000000000000000000000000000000000000 DUP2 MSTORE PUSH1 0x4 ADD PUSH2 0x94C SWAP1 PUSH2 0x1B33 JUMP JUMPDEST PUSH1 0x40 MLOAD DUP1 SWAP2 SUB SWAP1 REVERT JUMPDEST DUP4 DUP6 DUP5 PUSH2 0x962 SWAP2 SWAP1 PUSH2 0x19E5 JUMP JUMPDEST GT PUSH2 0x987 JUMPI DUP5 DUP3 PUSH1 0x2 ADD PUSH1 0x0 DUP3 DUP3 SLOAD PUSH2 0x97B SWAP2 SWAP1 PUSH2 0x19E5 JUMP JUMPDEST SWAP3 POP POP DUP2 SWAP1 SSTORE POP PUSH2 0x9B7 JUMP JUMPDEST DUP4 DUP3 PUSH1 0x2 ADD DUP2 SWAP1 SSTORE POP DUP4 DUP6 PUSH2 0x99C SWAP2 SWAP1 PUSH2 0x1A6A JUMP JUMPDEST DUP3 PUSH1 0x0 ADD PUSH1 0x0 DUP3 DUP3 SLOAD PUSH2 0x9AF SWAP2 SWAP1 PUSH2 0x1A6A JUMP JUMPDEST SWAP3 POP POP DUP2 SWAP1 SSTORE POP JUMPDEST PUSH1 0x0 DUP2 DUP1 SLOAD SWAP1 POP SWAP1 POP JUMPDEST PUSH1 0x0 DUP2 LT PUSH2 0xAF3 JUMPI DUP2 DUP2 DUP2 SLOAD DUP2 LT PUSH2 0x9DC JUMPI PUSH2 0x9DB PUSH2 0x1A3B JUMP JUMPDEST JUMPDEST SWAP1 PUSH1 0x0 MSTORE PUSH1 0x20 PUSH1 0x0 KECCAK256 SWAP1 PUSH1 0x3 MUL ADD PUSH1 0x0 ADD SLOAD DUP3 DUP3 DUP2 SLOAD DUP2 LT PUSH2 0xA01 JUMPI PUSH2 0xA00 PUSH2 0x1A3B JUMP JUMPDEST JUMPDEST SWAP1 PUSH1 0x0 MSTORE PUSH1 0x20 PUSH1 0x0 KECCAK256 SWAP1 PUSH1 0x3 MUL ADD PUSH1 0x2 ADD SLOAD PUSH2 0xA1D SWAP2 SWAP1 PUSH2 0x19E5 JUMP JUMPDEST NUMBER LT ISZERO DUP1 ISZERO PUSH2 0xA54 JUMPI POP DUP2 DUP2 DUP2 SLOAD DUP2 LT PUSH2 0xA3A JUMPI PUSH2 0xA39 PUSH2 0x1A3B JUMP JUMPDEST JUMPDEST SWAP1 PUSH1 0x0 MSTORE PUSH1 0x20 PUSH1 0x0 KECCAK256 SWAP1 PUSH1 0x3 MUL ADD PUSH1 0x1 ADD SLOAD DUP4 PUSH1 0x2 ADD SLOAD LT ISZERO JUMPDEST ISZERO PUSH2 0xADF JUMPI DUP2 DUP1 SLOAD DUP1 PUSH2 0xA6A JUMPI PUSH2 0xA69 PUSH2 0x1B53 JUMP JUMPDEST JUMPDEST PUSH1 0x1 SWAP1 SUB DUP2 DUP2 SWAP1 PUSH1 0x0 MSTORE PUSH1 0x20 PUSH1 0x0 KECCAK256 SWAP1 PUSH1 0x3 MUL ADD PUSH1 0x0 DUP1 DUP3 ADD PUSH1 0x0 SWAP1 SSTORE PUSH1 0x1 DUP3 ADD PUSH1 0x0 SWAP1 SSTORE PUSH1 0x2 DUP3 ADD PUSH1 0x0 SWAP1 SSTORE POP POP SWAP1 SSTORE DUP2 DUP2 DUP2 SLOAD DUP2 LT PUSH2 0xAAE JUMPI PUSH2 0xAAD PUSH2 0x1A3B JUMP JUMPDEST JUMPDEST SWAP1 PUSH1 0x0 MSTORE PUSH1 0x20 PUSH1 0x0 KECCAK256 SWAP1 PUSH1 0x3 MUL ADD PUSH1 0x1 ADD SLOAD DUP4 PUSH1 0x2 ADD PUSH1 0x0 DUP3 DUP3 SLOAD PUSH2 0xAD3 SWAP2 SWAP1 PUSH2 0x1A6A JUMP JUMPDEST SWAP3 POP POP DUP2 SWAP1 SSTORE POP PUSH2 0xAEE JUMP JUMPDEST DUP1 DUP1 PUSH2 0xAEA SWAP1 PUSH2 0x1B82 JUMP JUMPDEST SWAP2 POP POP JUMPDEST PUSH2 0x9C1 JUMP JUMPDEST POP PUSH1 0x0 PUSH1 0x2 SLOAD DUP7 PUSH1 0x9 SLOAD PUSH2 0xB07 SWAP2 SWAP1 PUSH2 0x192B JUMP JUMPDEST PUSH2 0xB11 SWAP2 SWAP1 PUSH2 0x19B4 JUMP JUMPDEST SWAP1 POP DUP6 PUSH1 0x2 PUSH1 0x0 DUP3 DUP3 SLOAD PUSH2 0xB25 SWAP2 SWAP1 PUSH2 0x1A6A JUMP JUMPDEST SWAP3 POP POP DUP2 SWAP1 SSTORE POP DUP1 PUSH1 0x9 PUSH1 0x0 DUP3 DUP3 SLOAD PUSH2 0xB3E SWAP2 SWAP1 PUSH2 0x1A6A JUMP JUMPDEST SWAP3 POP POP DUP2 SWAP1 SSTORE POP PUSH32 0x0 PUSH20 0xFFFFFFFFFFFFFFFFFFFFFFFFFFFFFFFFFFFFFFFF AND PUSH4 0xA9059CBB CALLER DUP4 PUSH1 0x40 MLOAD DUP4 PUSH4 0xFFFFFFFF AND PUSH1 0xE0 SHL DUP2 MSTORE PUSH1 0x4 ADD PUSH2 0xBA0 SWAP3 SWAP2 SWAP1 PUSH2 0x1791 JUMP JUMPDEST PUSH1 0x20 PUSH1 0x40 MLOAD DUP1 DUP4 SUB DUP2 PUSH1 0x0 DUP8 DUP1 EXTCODESIZE ISZERO DUP1 ISZERO PUSH2 0xBBA JUMPI PUSH1 0x0 DUP1 REVERT JUMPDEST POP GAS CALL ISZERO DUP1 ISZERO PUSH2 0xBCE JUMPI RETURNDATASIZE PUSH1 0x0 DUP1 RETURNDATACOPY RETURNDATASIZE PUSH1 0x0 REVERT JUMPDEST POP POP POP POP PUSH1 0x40 MLOAD RETURNDATASIZE PUSH1 0x1F NOT PUSH1 0x1F DUP3 ADD AND DUP3 ADD DUP1 PUSH1 0x40 MSTORE POP DUP2 ADD SWAP1 PUSH2 0xBF2 SWAP2 SWAP1 PUSH2 0x17E6 JUMP JUMPDEST PUSH2 0xC31 JUMPI PUSH1 0x40 MLOAD PUSH32 0x8C379A000000000000000000000000000000000000000000000000000000000 DUP2 MSTORE PUSH1 0x4 ADD PUSH2 0xC28 SWAP1 PUSH2 0x18DC JUMP JUMPDEST PUSH1 0x40 MLOAD DUP1 SWAP2 SUB SWAP1 REVERT JUMPDEST POP POP POP POP POP POP JUMP JUMPDEST PUSH1 0x0 PUSH1 0x20 MSTORE DUP2 PUSH1 0x0 MSTORE PUSH1 0x40 PUSH1 0x0 KECCAK256 DUP2 DUP2 SLOAD DUP2 LT PUSH2 0xC55 JUMPI PUSH1 0x0 DUP1 REVERT JUMPDEST SWAP1 PUSH1 0x0 MSTORE PUSH1 0x20 PUSH1 0x0 KECCAK256 SWAP1 PUSH1 0x3 MUL ADD PUSH1 0x0 SWAP2 POP SWAP2 POP POP DUP1 PUSH1 0x0 ADD SLOAD SWAP1 DUP1 PUSH1 0x1 ADD SLOAD SWAP1 DUP1 PUSH1 0x2 ADD SLOAD SWAP1 POP DUP4 JUMP JUMPDEST PUSH1 0x6 SLOAD DUP2 JUMP JUMPDEST PUSH1 0x2 SLOAD DUP2 JUMP JUMPDEST PUSH1 0x5 SLOAD DUP2 JUMP JUMPDEST PUSH2 0xCDD PUSH1 0x1 PUSH1 0x0 CALLER PUSH20 0xFFFFFFFFFFFFFFFFFFFFFFFFFFFFFFFFFFFFFFFF AND PUSH20 0xFFFFFFFFFFFFFFFFFFFFFFFFFFFFFFFFFFFFFFFF AND DUP2 MSTORE PUSH1 0x20 ADD SWAP1 DUP2 MSTORE PUSH1 0x20 ADD PUSH1 0x0 KECCAK256 PUSH1 0x0 ADD SLOAD PUSH2 0x771 JUMP JUMPDEST JUMP JUMPDEST PUSH1 0x3 PUSH1 0x0 SWAP1 SLOAD SWAP1 PUSH2 0x100 EXP SWAP1 DIV PUSH20 0xFFFFFFFFFFFFFFFFFFFFFFFFFFFFFFFFFFFFFFFF AND DUP2 JUMP JUMPDEST PUSH1 0x4 SLOAD DUP2 JUMP JUMPDEST PUSH1 0xA PUSH1 0x0 SWAP1 SLOAD SWAP1 PUSH2 0x100 EXP SWAP1 DIV PUSH1 0xFF AND DUP2 JUMP JUMPDEST PUSH1 0x8 SLOAD DUP2 JUMP JUMPDEST PUSH1 0x0 PUSH1 0x4 SLOAD PUSH1 0x6 SLOAD PUSH1 0x9 SLOAD PUSH1 0x5 SLOAD PUSH2 0xD3C SWAP2 SWAP1 PUSH2 0x192B JUMP JUMPDEST PUSH2 0xD46 SWAP2 SWAP1 PUSH2 0x19B4 JUMP JUMPDEST PUSH2 0xD50 SWAP2 SWAP1 PUSH2 0x19B4 JUMP JUMPDEST SWAP1 POP PUSH1 0x0 PUSH1 0x8 SLOAD NUMBER PUSH2 0xD62 SWAP2 SWAP1 PUSH2 0x1A6A JUMP JUMPDEST SWAP1 POP PUSH1 0x0 DUP3 DUP3 PUSH2 0xD72 SWAP2 SWAP1 PUSH2 0x192B JUMP JUMPDEST SWAP1 POP DUP1 PUSH1 0x7 PUSH1 0x0 DUP3 DUP3 SLOAD PUSH2 0xD86 SWAP2 SWAP1 PUSH2 0x19E5 JUMP JUMPDEST SWAP3 POP POP DUP2 SWAP1 SSTORE POP DUP1 PUSH1 0x9 PUSH1 0x0 DUP3 DUP3 SLOAD PUSH2 0xD9F SWAP2 SWAP1 PUSH2 0x19E5 JUMP JUMPDEST SWAP3 POP POP DUP2 SWAP1 SSTORE POP NUMBER PUSH1 0x8 DUP2 SWAP1 SSTORE POP POP POP POP JUMP JUMPDEST PUSH2 0xDBA PUSH2 0xD24 JUMP JUMPDEST PUSH1 0x0 DUP2 GT PUSH2 0xDFD JUMPI PUSH1 0x40 MLOAD PUSH32 0x8C379A000000000000000000000000000000000000000000000000000000000 DUP2 MSTORE PUSH1 0x4 ADD PUSH2 0xDF4 SWAP1 PUSH2 0x185F JUMP JUMPDEST PUSH1 0x40 MLOAD DUP1 SWAP2 SUB SWAP1 REVERT JUMPDEST PUSH32 0x0 PUSH20 0xFFFFFFFFFFFFFFFFFFFFFFFFFFFFFFFFFFFFFFFF AND PUSH4 0x23B872DD CALLER ADDRESS DUP5 PUSH1 0x40 MLOAD DUP5 PUSH4 0xFFFFFFFF AND PUSH1 0xE0 SHL DUP2 MSTORE PUSH1 0x4 ADD PUSH2 0xE5A SWAP4 SWAP3 SWAP2 SWAP1 PUSH2 0x187F JUMP JUMPDEST PUSH1 0x20 PUSH1 0x40 MLOAD DUP1 DUP4 SUB DUP2 PUSH1 0x0 DUP8 DUP1 EXTCODESIZE ISZERO DUP1 ISZERO PUSH2 0xE74 JUMPI PUSH1 0x0 DUP1 REVERT JUMPDEST POP GAS CALL ISZERO DUP1 ISZERO PUSH2 0xE88 JUMPI RETURNDATASIZE PUSH1 0x0 DUP1 RETURNDATACOPY RETURNDATASIZE PUSH1 0x0 REVERT JUMPDEST POP POP POP POP PUSH1 0x40 MLOAD RETURNDATASIZE PUSH1 0x1F NOT PUSH1 0x1F DUP3 ADD AND DUP3 ADD DUP1 PUSH1 0x40 MSTORE POP DUP2 ADD SWAP1 PUSH2 0xEAC SWAP2 SWAP1 PUSH2 0x17E6 JUMP JUMPDEST PUSH2 0xEEB JUMPI PUSH1 0x40 MLOAD PUSH32 0x8C379A000000000000000000000000000000000000000000000000000000000 DUP2 MSTORE PUSH1 0x4 ADD PUSH2 0xEE2 SWAP1 PUSH2 0x18DC JUMP JUMPDEST PUSH1 0x40 MLOAD DUP1 SWAP2 SUB SWAP1 REVERT JUMPDEST PUSH1 0x0 DUP1 PUSH1 0x2 SLOAD EQ PUSH2 0xF18 JUMPI PUSH1 0x9 SLOAD PUSH1 0x2 SLOAD DUP4 PUSH2 0xF07 SWAP2 SWAP1 PUSH2 0x192B JUMP JUMPDEST PUSH2 0xF11 SWAP2 SWAP1 PUSH2 0x19B4 JUMP JUMPDEST SWAP1 POP PUSH2 0xF1C JUMP JUMPDEST DUP2 SWAP1 POP JUMPDEST PUSH1 0x0 PUSH1 0x1 PUSH1 0x0 CALLER PUSH20 0xFFFFFFFFFFFFFFFFFFFFFFFFFFFFFFFFFFFFFFFF AND PUSH20 0xFFFFFFFFFFFFFFFFFFFFFFFFFFFFFFFFFFFFFFFF AND DUP2 MSTORE PUSH1 0x20 ADD SWAP1 DUP2 MSTORE PUSH1 0x20 ADD PUSH1 0x0 KECCAK256 SWAP1 POP DUP2 DUP2 PUSH1 0x0 ADD PUSH1 0x0 DUP3 DUP3 SLOAD PUSH2 0xF73 SWAP2 SWAP1 PUSH2 0x19E5 JUMP JUMPDEST SWAP3 POP POP DUP2 SWAP1 SSTORE POP DUP2 PUSH1 0x2 PUSH1 0x0 DUP3 DUP3 SLOAD PUSH2 0xF8C SWAP2 SWAP1 PUSH2 0x19E5 JUMP JUMPDEST SWAP3 POP POP DUP2 SWAP1 SSTORE POP DUP3 PUSH1 0x9 PUSH1 0x0 DUP3 DUP3 SLOAD PUSH2 0xFA5 SWAP2 SWAP1 PUSH2 0x19E5 JUMP JUMPDEST SWAP3 POP POP DUP2 SWAP1 SSTORE POP POP POP POP JUMP JUMPDEST PUSH1 0x7 SLOAD DUP2 JUMP JUMPDEST PUSH1 0x3 PUSH1 0x0 SWAP1 SLOAD SWAP1 PUSH2 0x100 EXP SWAP1 DIV PUSH20 0xFFFFFFFFFFFFFFFFFFFFFFFFFFFFFFFFFFFFFFFF AND PUSH20 0xFFFFFFFFFFFFFFFFFFFFFFFFFFFFFFFFFFFFFFFF AND CALLER PUSH20 0xFFFFFFFFFFFFFFFFFFFFFFFFFFFFFFFFFFFFFFFF AND EQ PUSH2 0x1047 JUMPI PUSH1 0x40 MLOAD PUSH32 0x8C379A000000000000000000000000000000000000000000000000000000000 DUP2 MSTORE PUSH1 0x4 ADD PUSH2 0x103E SWAP1 PUSH2 0x1771 JUMP JUMPDEST PUSH1 0x40 MLOAD DUP1 SWAP2 SUB SWAP1 REVERT JUMPDEST PUSH2 0x104F PUSH2 0xD24 JUMP JUMPDEST DUP1 PUSH1 0x4 DUP2 SWAP1 SSTORE POP POP JUMP JUMPDEST PUSH1 0x3 PUSH1 0x0 SWAP1 SLOAD SWAP1 PUSH2 0x100 EXP SWAP1 DIV PUSH20 0xFFFFFFFFFFFFFFFFFFFFFFFFFFFFFFFFFFFFFFFF AND PUSH20 0xFFFFFFFFFFFFFFFFFFFFFFFFFFFFFFFFFFFFFFFF AND CALLER PUSH20 0xFFFFFFFFFFFFFFFFFFFFFFFFFFFFFFFFFFFFFFFF AND EQ PUSH2 0x10E9 JUMPI PUSH1 0x40 MLOAD PUSH32 0x8C379A000000000000000000000000000000000000000000000000000000000 DUP2 MSTORE PUSH1 0x4 ADD PUSH2 0x10E0 SWAP1 PUSH2 0x1771 JUMP JUMPDEST PUSH1 0x40 MLOAD DUP1 SWAP2 SUB SWAP1 REVERT JUMPDEST PUSH1 0xA PUSH1 0x0 SWAP1 SLOAD SWAP1 PUSH2 0x100 EXP SWAP1 DIV PUSH1 0xFF AND ISZERO PUSH1 0xA PUSH1 0x0 PUSH2 0x100 EXP DUP2 SLOAD DUP2 PUSH1 0xFF MUL NOT AND SWAP1 DUP4 ISZERO ISZERO MUL OR SWAP1 SSTORE POP JUMP JUMPDEST DUP2 PUSH1 0x5 DUP2 SWAP1 SSTORE POP DUP1 PUSH1 0x6 DUP2 SWAP1 SSTORE POP POP POP JUMP JUMPDEST PUSH1 0x0 DUP1 PUSH1 0x0 SWAP1 POP PUSH1 0x0 DUP1 PUSH1 0x1 PUSH1 0x0 CALLER PUSH20 0xFFFFFFFFFFFFFFFFFFFFFFFFFFFFFFFFFFFFFFFF AND PUSH20 0xFFFFFFFFFFFFFFFFFFFFFFFFFFFFFFFFFFFFFFFF AND DUP2 MSTORE PUSH1 0x20 ADD SWAP1 DUP2 MSTORE PUSH1 0x20 ADD PUSH1 0x0 KECCAK256 PUSH1 0x40 MLOAD DUP1 PUSH1 0x60 ADD PUSH1 0x40 MSTORE SWAP1 DUP2 PUSH1 0x0 DUP3 ADD SLOAD DUP2 MSTORE PUSH1 0x20 ADD PUSH1 0x1 DUP3 ADD SLOAD DUP2 MSTORE PUSH1 0x20 ADD PUSH1 0x2 DUP3 ADD SLOAD DUP2 MSTORE POP POP SWAP1 POP PUSH1 0x0 DUP1 PUSH1 0x0 CALLER PUSH20 0xFFFFFFFFFFFFFFFFFFFFFFFFFFFFFFFFFFFFFFFF AND PUSH20 0xFFFFFFFFFFFFFFFFFFFFFFFFFFFFFFFFFFFFFFFF AND DUP2 MSTORE PUSH1 0x20 ADD SWAP1 DUP2 MSTORE PUSH1 0x20 ADD PUSH1 0x0 KECCAK256 DUP1 SLOAD DUP1 PUSH1 0x20 MUL PUSH1 0x20 ADD PUSH1 0x40 MLOAD SWAP1 DUP2 ADD PUSH1 0x40 MSTORE DUP1 SWAP3 SWAP2 SWAP1 DUP2 DUP2 MSTORE PUSH1 0x20 ADD PUSH1 0x0 SWAP1 JUMPDEST DUP3 DUP3 LT ISZERO PUSH2 0x124B JUMPI DUP4 DUP3 SWAP1 PUSH1 0x0 MSTORE PUSH1 0x20 PUSH1 0x0 KECCAK256 SWAP1 PUSH1 0x3 MUL ADD PUSH1 0x40 MLOAD DUP1 PUSH1 0x60 ADD PUSH1 0x40 MSTORE SWAP1 DUP2 PUSH1 0x0 DUP3 ADD SLOAD DUP2 MSTORE PUSH1 0x20 ADD PUSH1 0x1 DUP3 ADD SLOAD DUP2 MSTORE PUSH1 0x20 ADD PUSH1 0x2 DUP3 ADD SLOAD DUP2 MSTORE POP POP DUP2 MSTORE PUSH1 0x20 ADD SWAP1 PUSH1 0x1 ADD SWAP1 PUSH2 0x11FB JUMP JUMPDEST POP POP POP POP SWAP1 POP PUSH1 0x0 JUMPDEST DUP2 MLOAD DUP2 LT ISZERO PUSH2 0x1328 JUMPI DUP2 DUP2 DUP2 MLOAD DUP2 LT PUSH2 0x1270 JUMPI PUSH2 0x126F PUSH2 0x1A3B JUMP JUMPDEST JUMPDEST PUSH1 0x20 MUL PUSH1 0x20 ADD ADD MLOAD PUSH1 0x20 ADD MLOAD DUP3 DUP3 DUP2 MLOAD DUP2 LT PUSH2 0x128F JUMPI PUSH2 0x128E PUSH2 0x1A3B JUMP JUMPDEST JUMPDEST PUSH1 0x20 MUL PUSH1 0x20 ADD ADD MLOAD PUSH1 0x40 ADD MLOAD NUMBER PUSH2 0x12A6 SWAP2 SWAP1 PUSH2 0x1A6A JUMP JUMPDEST DUP4 DUP4 DUP2 MLOAD DUP2 LT PUSH2 0x12B9 JUMPI PUSH2 0x12B8 PUSH2 0x1A3B JUMP JUMPDEST JUMPDEST PUSH1 0x20 MUL PUSH1 0x20 ADD ADD MLOAD PUSH1 0x0 ADD MLOAD PUSH2 0x12CF SWAP2 SWAP1 PUSH2 0x192B JUMP JUMPDEST PUSH2 0x12D9 SWAP2 SWAP1 PUSH2 0x19B4 JUMP JUMPDEST SWAP4 POP DUP2 DUP2 DUP2 MLOAD DUP2 LT PUSH2 0x12EE JUMPI PUSH2 0x12ED PUSH2 0x1A3B JUMP JUMPDEST JUMPDEST PUSH1 0x20 MUL PUSH1 0x20 ADD ADD MLOAD PUSH1 0x20 ADD MLOAD DUP6 PUSH2 0x1305 SWAP2 SWAP1 PUSH2 0x19E5 JUMP JUMPDEST SWAP5 POP DUP1 DUP1 PUSH2 0x1312 SWAP1 PUSH2 0x1A9E JUMP JUMPDEST SWAP2 POP POP DUP1 DUP1 PUSH2 0x1320 SWAP1 PUSH2 0x1A9E JUMP JUMPDEST SWAP2 POP POP PUSH2 0x1254 JUMP JUMPDEST POP PUSH1 0x0 PUSH1 0x2 SLOAD PUSH1 0x9 SLOAD PUSH1 0x1 PUSH1 0x0 DUP11 PUSH20 0xFFFFFFFFFFFFFFFFFFFFFFFFFFFFFFFFFFFFFFFF AND PUSH20 0xFFFFFFFFFFFFFFFFFFFFFFFFFFFFFFFFFFFFFFFF AND DUP2 MSTORE PUSH1 0x20 ADD SWAP1 DUP2 MSTORE PUSH1 0x20 ADD PUSH1 0x0 KECCAK256 PUSH1 0x0 ADD SLOAD PUSH2 0x137E SWAP2 SWAP1 PUSH2 0x192B JUMP JUMPDEST PUSH2 0x1388 SWAP2 SWAP1 PUSH2 0x19B4 JUMP JUMPDEST SWAP1 POP DUP3 PUSH1 0x40 ADD MLOAD DUP5 DUP3 PUSH2 0x139B SWAP2 SWAP1 PUSH2 0x19E5 JUMP JUMPDEST PUSH2 0x13A5 SWAP2 SWAP1 PUSH2 0x1A6A JUMP JUMPDEST SWAP6 POP POP POP POP POP POP SWAP2 SWAP1 POP JUMP JUMPDEST PUSH32 0x0 DUP2 JUMP JUMPDEST PUSH1 0x0 DUP1 REVERT JUMPDEST PUSH1 0x0 PUSH20 0xFFFFFFFFFFFFFFFFFFFFFFFFFFFFFFFFFFFFFFFF DUP3 AND SWAP1 POP SWAP2 SWAP1 POP JUMP JUMPDEST PUSH1 0x0 PUSH2 0x1405 DUP3 PUSH2 0x13DA JUMP JUMPDEST SWAP1 POP SWAP2 SWAP1 POP JUMP JUMPDEST PUSH1 0x0 PUSH2 0x1417 DUP3 PUSH2 0x13FA JUMP JUMPDEST SWAP1 POP SWAP2 SWAP1 POP JUMP JUMPDEST PUSH2 0x1427 DUP2 PUSH2 0x140C JUMP JUMPDEST DUP2 EQ PUSH2 0x1432 JUMPI PUSH1 0x0 DUP1 REVERT JUMPDEST POP JUMP JUMPDEST PUSH1 0x0 DUP2 CALLDATALOAD SWAP1 POP PUSH2 0x1444 DUP2 PUSH2 0x141E JUMP JUMPDEST SWAP3 SWAP2 POP POP JUMP JUMPDEST PUSH2 0x1453 DUP2 PUSH2 0x13FA JUMP JUMPDEST DUP2 EQ PUSH2 0x145E JUMPI PUSH1 0x0 DUP1 REVERT JUMPDEST POP JUMP JUMPDEST PUSH1 0x0 DUP2 CALLDATALOAD SWAP1 POP PUSH2 0x1470 DUP2 PUSH2 0x144A JUMP JUMPDEST SWAP3 SWAP2 POP POP JUMP JUMPDEST PUSH1 0x0 DUP2 SWAP1 POP SWAP2 SWAP1 POP JUMP JUMPDEST PUSH2 0x1489 DUP2 PUSH2 0x1476 JUMP JUMPDEST DUP2 EQ PUSH2 0x1494 JUMPI PUSH1 0x0 DUP1 REVERT JUMPDEST POP JUMP JUMPDEST PUSH1 0x0 DUP2 CALLDATALOAD SWAP1 POP PUSH2 0x14A6 DUP2 PUSH2 0x1480 JUMP JUMPDEST SWAP3 SWAP2 POP POP JUMP JUMPDEST PUSH1 0x0 DUP1 PUSH1 0x0 PUSH1 0x60 DUP5 DUP7 SUB SLT ISZERO PUSH2 0x14C5 JUMPI PUSH2 0x14C4 PUSH2 0x13D5 JUMP JUMPDEST JUMPDEST PUSH1 0x0 PUSH2 0x14D3 DUP7 DUP3 DUP8 ADD PUSH2 0x1435 JUMP JUMPDEST SWAP4 POP POP PUSH1 0x20 PUSH2 0x14E4 DUP7 DUP3 DUP8 ADD PUSH2 0x1461 JUMP JUMPDEST SWAP3 POP POP PUSH1 0x40 PUSH2 0x14F5 DUP7 DUP3 DUP8 ADD PUSH2 0x1497 JUMP JUMPDEST SWAP2 POP POP SWAP3 POP SWAP3 POP SWAP3 JUMP JUMPDEST PUSH2 0x1508 DUP2 PUSH2 0x1476 JUMP JUMPDEST DUP3 MSTORE POP POP JUMP JUMPDEST PUSH1 0x0 PUSH1 0x20 DUP3 ADD SWAP1 POP PUSH2 0x1523 PUSH1 0x0 DUP4 ADD DUP5 PUSH2 0x14FF JUMP JUMPDEST SWAP3 SWAP2 POP POP JUMP JUMPDEST PUSH1 0x0 PUSH1 0x20 DUP3 DUP5 SUB SLT ISZERO PUSH2 0x153F JUMPI PUSH2 0x153E PUSH2 0x13D5 JUMP JUMPDEST JUMPDEST PUSH1 0x0 PUSH2 0x154D DUP5 DUP3 DUP6 ADD PUSH2 0x1461 JUMP JUMPDEST SWAP2 POP POP SWAP3 SWAP2 POP POP JUMP JUMPDEST PUSH1 0x0 PUSH1 0x60 DUP3 ADD SWAP1 POP PUSH2 0x156B PUSH1 0x0 DUP4 ADD DUP7 PUSH2 0x14FF JUMP JUMPDEST PUSH2 0x1578 PUSH1 0x20 DUP4 ADD DUP6 PUSH2 0x14FF JUMP JUMPDEST PUSH2 0x1585 PUSH1 0x40 DUP4 ADD DUP5 PUSH2 0x14FF JUMP JUMPDEST SWAP5 SWAP4 POP POP POP POP JUMP JUMPDEST PUSH1 0x0 DUP1 PUSH1 0x40 DUP4 DUP6 SUB SLT ISZERO PUSH2 0x15A4 JUMPI PUSH2 0x15A3 PUSH2 0x13D5 JUMP JUMPDEST JUMPDEST PUSH1 0x0 PUSH2 0x15B2 DUP6 DUP3 DUP7 ADD PUSH2 0x1497 JUMP JUMPDEST SWAP3 POP POP PUSH1 0x20 PUSH2 0x15C3 DUP6 DUP3 DUP7 ADD PUSH2 0x1497 JUMP JUMPDEST SWAP2 POP POP SWAP3 POP SWAP3 SWAP1 POP JUMP JUMPDEST PUSH1 0x0 PUSH1 0x20 DUP3 DUP5 SUB SLT ISZERO PUSH2 0x15E3 JUMPI PUSH2 0x15E2 PUSH2 0x13D5 JUMP JUMPDEST JUMPDEST PUSH1 0x0 PUSH2 0x15F1 DUP5 DUP3 DUP6 ADD PUSH2 0x1497 JUMP JUMPDEST SWAP2 POP POP SWAP3 SWAP2 POP POP JUMP JUMPDEST PUSH1 0x0 DUP1 PUSH1 0x40 DUP4 DUP6 SUB SLT ISZERO PUSH2 0x1611 JUMPI PUSH2 0x1610 PUSH2 0x13D5 JUMP JUMPDEST JUMPDEST PUSH1 0x0 PUSH2 0x161F DUP6 DUP3 DUP7 ADD PUSH2 0x1461 JUMP JUMPDEST SWAP3 POP POP PUSH1 0x20 PUSH2 0x1630 DUP6 DUP3 DUP7 ADD PUSH2 0x1497 JUMP JUMPDEST SWAP2 POP POP SWAP3 POP SWAP3 SWAP1 POP JUMP JUMPDEST PUSH2 0x1643 DUP2 PUSH2 0x13FA JUMP JUMPDEST DUP3 MSTORE POP POP JUMP JUMPDEST PUSH1 0x0 PUSH1 0x20 DUP3 ADD SWAP1 POP PUSH2 0x165E PUSH1 0x0 DUP4 ADD DUP5 PUSH2 0x163A JUMP JUMPDEST SWAP3 SWAP2 POP POP JUMP JUMPDEST PUSH1 0x0 DUP2 ISZERO ISZERO SWAP1 POP SWAP2 SWAP1 POP JUMP JUMPDEST PUSH2 0x1679 DUP2 PUSH2 0x1664 JUMP JUMPDEST DUP3 MSTORE POP POP JUMP JUMPDEST PUSH1 0x0 PUSH1 0x20 DUP3 ADD SWAP1 POP PUSH2 0x1694 PUSH1 0x0 DUP4 ADD DUP5 PUSH2 0x1670 JUMP JUMPDEST SWAP3 SWAP2 POP POP JUMP JUMPDEST PUSH1 0x0 DUP2 SWAP1 POP SWAP2 SWAP1 POP JUMP JUMPDEST PUSH1 0x0 PUSH2 0x16BF PUSH2 0x16BA PUSH2 0x16B5 DUP5 PUSH2 0x13DA JUMP JUMPDEST PUSH2 0x169A JUMP JUMPDEST PUSH2 0x13DA JUMP JUMPDEST SWAP1 POP SWAP2 SWAP1 POP JUMP JUMPDEST PUSH1 0x0 PUSH2 0x16D1 DUP3 PUSH2 0x16A4 JUMP JUMPDEST SWAP1 POP SWAP2 SWAP1 POP JUMP JUMPDEST PUSH1 0x0 PUSH2 0x16E3 DUP3 PUSH2 0x16C6 JUMP JUMPDEST SWAP1 POP SWAP2 SWAP1 POP JUMP JUMPDEST PUSH2 0x16F3 DUP2 PUSH2 0x16D8 JUMP JUMPDEST DUP3 MSTORE POP POP JUMP JUMPDEST PUSH1 0x0 PUSH1 0x20 DUP3 ADD SWAP1 POP PUSH2 0x170E PUSH1 0x0 DUP4 ADD DUP5 PUSH2 0x16EA JUMP JUMPDEST SWAP3 SWAP2 POP POP JUMP JUMPDEST PUSH1 0x0 DUP3 DUP3 MSTORE PUSH1 0x20 DUP3 ADD SWAP1 POP SWAP3 SWAP2 POP POP JUMP JUMPDEST PUSH32 0x6F776E65723A207775743F000000000000000000000000000000000000000000 PUSH1 0x0 DUP3 ADD MSTORE POP JUMP JUMPDEST PUSH1 0x0 PUSH2 0x175B PUSH1 0xB DUP4 PUSH2 0x1714 JUMP JUMPDEST SWAP2 POP PUSH2 0x1766 DUP3 PUSH2 0x1725 JUMP JUMPDEST PUSH1 0x20 DUP3 ADD SWAP1 POP SWAP2 SWAP1 POP JUMP JUMPDEST PUSH1 0x0 PUSH1 0x20 DUP3 ADD SWAP1 POP DUP2 DUP2 SUB PUSH1 0x0 DUP4 ADD MSTORE PUSH2 0x178A DUP2 PUSH2 0x174E JUMP JUMPDEST SWAP1 POP SWAP2 SWAP1 POP JUMP JUMPDEST PUSH1 0x0 PUSH1 0x40 DUP3 ADD SWAP1 POP PUSH2 0x17A6 PUSH1 0x0 DUP4 ADD DUP6 PUSH2 0x163A JUMP JUMPDEST PUSH2 0x17B3 PUSH1 0x20 DUP4 ADD DUP5 PUSH2 0x14FF JUMP JUMPDEST SWAP4 SWAP3 POP POP POP JUMP JUMPDEST PUSH2 0x17C3 DUP2 PUSH2 0x1664 JUMP JUMPDEST DUP2 EQ PUSH2 0x17CE JUMPI PUSH1 0x0 DUP1 REVERT JUMPDEST POP JUMP JUMPDEST PUSH1 0x0 DUP2 MLOAD SWAP1 POP PUSH2 0x17E0 DUP2 PUSH2 0x17BA JUMP JUMPDEST SWAP3 SWAP2 POP POP JUMP JUMPDEST PUSH1 0x0 PUSH1 0x20 DUP3 DUP5 SUB SLT ISZERO PUSH2 0x17FC JUMPI PUSH2 0x17FB PUSH2 0x13D5 JUMP JUMPDEST JUMPDEST PUSH1 0x0 PUSH2 0x180A DUP5 DUP3 DUP6 ADD PUSH2 0x17D1 JUMP JUMPDEST SWAP2 POP POP SWAP3 SWAP2 POP POP JUMP JUMPDEST PUSH32 0x4E6F7468696E6720746F206465706F7369740000000000000000000000000000 PUSH1 0x0 DUP3 ADD MSTORE POP JUMP JUMPDEST PUSH1 0x0 PUSH2 0x1849 PUSH1 0x12 DUP4 PUSH2 0x1714 JUMP JUMPDEST SWAP2 POP PUSH2 0x1854 DUP3 PUSH2 0x1813 JUMP JUMPDEST PUSH1 0x20 DUP3 ADD SWAP1 POP SWAP2 SWAP1 POP JUMP JUMPDEST PUSH1 0x0 PUSH1 0x20 DUP3 ADD SWAP1 POP DUP2 DUP2 SUB PUSH1 0x0 DUP4 ADD MSTORE PUSH2 0x1878 DUP2 PUSH2 0x183C JUMP JUMPDEST SWAP1 POP SWAP2 SWAP1 POP JUMP JUMPDEST PUSH1 0x0 PUSH1 0x60 DUP3 ADD SWAP1 POP PUSH2 0x1894 PUSH1 0x0 DUP4 ADD DUP7 PUSH2 0x163A JUMP JUMPDEST PUSH2 0x18A1 PUSH1 0x20 DUP4 ADD DUP6 PUSH2 0x163A JUMP JUMPDEST PUSH2 0x18AE PUSH1 0x40 DUP4 ADD DUP5 PUSH2 0x14FF JUMP JUMPDEST SWAP5 SWAP4 POP POP POP POP JUMP JUMPDEST POP JUMP JUMPDEST PUSH1 0x0 PUSH2 0x18C6 PUSH1 0x0 DUP4 PUSH2 0x1714 JUMP JUMPDEST SWAP2 POP PUSH2 0x18D1 DUP3 PUSH2 0x18B6 JUMP JUMPDEST PUSH1 0x0 DUP3 ADD SWAP1 POP SWAP2 SWAP1 POP JUMP JUMPDEST PUSH1 0x0 PUSH1 0x20 DUP3 ADD SWAP1 POP DUP2 DUP2 SUB PUSH1 0x0 DUP4 ADD MSTORE PUSH2 0x18F5 DUP2 PUSH2 0x18B9 JUMP JUMPDEST SWAP1 POP SWAP2 SWAP1 POP JUMP JUMPDEST PUSH32 0x4E487B7100000000000000000000000000000000000000000000000000000000 PUSH1 0x0 MSTORE PUSH1 0x11 PUSH1 0x4 MSTORE PUSH1 0x24 PUSH1 0x0 REVERT JUMPDEST PUSH1 0x0 PUSH2 0x1936 DUP3 PUSH2 0x1476 JUMP JUMPDEST SWAP2 POP PUSH2 0x1941 DUP4 PUSH2 0x1476 JUMP JUMPDEST SWAP3 POP DUP2 PUSH32 0xFFFFFFFFFFFFFFFFFFFFFFFFFFFFFFFFFFFFFFFFFFFFFFFFFFFFFFFFFFFFFFFF DIV DUP4 GT DUP3 ISZERO ISZERO AND ISZERO PUSH2 0x197A JUMPI PUSH2 0x1979 PUSH2 0x18FC JUMP JUMPDEST JUMPDEST DUP3 DUP3 MUL SWAP1 POP SWAP3 SWAP2 POP POP JUMP JUMPDEST PUSH32 0x4E487B7100000000000000000000000000000000000000000000000000000000 PUSH1 0x0 MSTORE PUSH1 0x12 PUSH1 0x4 MSTORE PUSH1 0x24 PUSH1 0x0 REVERT JUMPDEST PUSH1 0x0 PUSH2 0x19BF DUP3 PUSH2 0x1476 JUMP JUMPDEST SWAP2 POP PUSH2 0x19CA DUP4 PUSH2 0x1476 JUMP JUMPDEST SWAP3 POP DUP3 PUSH2 0x19DA JUMPI PUSH2 0x19D9 PUSH2 0x1985 JUMP JUMPDEST JUMPDEST DUP3 DUP3 DIV SWAP1 POP SWAP3 SWAP2 POP POP JUMP JUMPDEST PUSH1 0x0 PUSH2 0x19F0 DUP3 PUSH2 0x1476 JUMP JUMPDEST SWAP2 POP PUSH2 0x19FB DUP4 PUSH2 0x1476 JUMP JUMPDEST SWAP3 POP DUP3 PUSH32 0xFFFFFFFFFFFFFFFFFFFFFFFFFFFFFFFFFFFFFFFFFFFFFFFFFFFFFFFFFFFFFFFF SUB DUP3 GT ISZERO PUSH2 0x1A30 JUMPI PUSH2 0x1A2F PUSH2 0x18FC JUMP JUMPDEST JUMPDEST DUP3 DUP3 ADD SWAP1 POP SWAP3 SWAP2 POP POP JUMP JUMPDEST PUSH32 0x4E487B7100000000000000000000000000000000000000000000000000000000 PUSH1 0x0 MSTORE PUSH1 0x32 PUSH1 0x4 MSTORE PUSH1 0x24 PUSH1 0x0 REVERT JUMPDEST PUSH1 0x0 PUSH2 0x1A75 DUP3 PUSH2 0x1476 JUMP JUMPDEST SWAP2 POP PUSH2 0x1A80 DUP4 PUSH2 0x1476 JUMP JUMPDEST SWAP3 POP DUP3 DUP3 LT ISZERO PUSH2 0x1A93 JUMPI PUSH2 0x1A92 PUSH2 0x18FC JUMP JUMPDEST JUMPDEST DUP3 DUP3 SUB SWAP1 POP SWAP3 SWAP2 POP POP JUMP JUMPDEST PUSH1 0x0 PUSH2 0x1AA9 DUP3 PUSH2 0x1476 JUMP JUMPDEST SWAP2 POP PUSH32 0xFFFFFFFFFFFFFFFFFFFFFFFFFFFFFFFFFFFFFFFFFFFFFFFFFFFFFFFFFFFFFFFF DUP3 EQ ISZERO PUSH2 0x1ADC JUMPI PUSH2 0x1ADB PUSH2 0x18FC JUMP JUMPDEST JUMPDEST PUSH1 0x1 DUP3 ADD SWAP1 POP SWAP2 SWAP1 POP JUMP JUMPDEST PUSH32 0x576974686472617720616D6F756E7420657863656564732062616C616E636500 PUSH1 0x0 DUP3 ADD MSTORE POP JUMP JUMPDEST PUSH1 0x0 PUSH2 0x1B1D PUSH1 0x1F DUP4 PUSH2 0x1714 JUMP JUMPDEST SWAP2 POP PUSH2 0x1B28 DUP3 PUSH2 0x1AE7 JUMP JUMPDEST PUSH1 0x20 DUP3 ADD SWAP1 POP SWAP2 SWAP1 POP JUMP JUMPDEST PUSH1 0x0 PUSH1 0x20 DUP3 ADD SWAP1 POP DUP2 DUP2 SUB PUSH1 0x0 DUP4 ADD MSTORE PUSH2 0x1B4C DUP2 PUSH2 0x1B10 JUMP JUMPDEST SWAP1 POP SWAP2 SWAP1 POP JUMP JUMPDEST PUSH32 0x4E487B7100000000000000000000000000000000000000000000000000000000 PUSH1 0x0 MSTORE PUSH1 0x31 PUSH1 0x4 MSTORE PUSH1 0x24 PUSH1 0x0 REVERT JUMPDEST PUSH1 0x0 PUSH2 0x1B8D DUP3 PUSH2 0x1476 JUMP JUMPDEST SWAP2 POP PUSH1 0x0 DUP3 EQ ISZERO PUSH2 0x1BA1 JUMPI PUSH2 0x1BA0 PUSH2 0x18FC JUMP JUMPDEST JUMPDEST PUSH1 0x1 DUP3 SUB SWAP1 POP SWAP2 SWAP1 POP JUMP INVALID LOG2 PUSH5 0x6970667358 0x22 SLT KECCAK256 DUP6 0xD1 0xA7 EXTCODECOPY 0xB0 XOR DUP7 LT 0xBF 0xB7 ISZERO 0xE3 0xB9 0x29 PUSH29 0x30C2BFEC8C0D7BE1AA0525DBAAE439418964736F6C6343000808003300 "
		},
		"gasEstimates": {
			"creation": {
				"codeDepositCost": "1427600",
				"executionCost": "infinite",
				"totalCost": "infinite"
			},
			"external": {
				"apyDown()": "2474",
				"apyUp()": "2518",
				"blocksInYear()": "2452",
				"createTimeUnlock(uint256,uint256)": "infinite",
				"deposit(uint256)": "infinite",
				"lastRewardBlock()": "2496",
				"owner()": "2647",
				"pendingReward(address)": "infinite",
				"potentiallyMinted()": "2451",
				"requiredBalance()": "2475",
				"revertFlag()": "2516",
				"setApy(uint256,uint256)": "infinite",
				"setBlocksInYear(uint256)": "infinite",
				"toggleRevert()": "28786",
				"token()": "infinite",
				"totalShares()": "2496",
				"updateRewardPool()": "infinite",
				"userInfo(address)": "infinite",
				"userUnlock(address,uint256)": "infinite",
				"withdraw(uint256)": "infinite",
				"withdrawAll()": "infinite",
				"withdrawToken(address,address,uint256)": "infinite"
			}
		},
		"methodIdentifiers": {
			"apyDown()": "39a2a2a9",
			"apyUp()": "44463d6e",
			"blocksInYear()": "92cf1577",
			"createTimeUnlock(uint256,uint256)": "1cbb9b28",
			"deposit(uint256)": "b6b55f25",
			"lastRewardBlock()": "a9f8d181",
			"owner()": "8da5cb5b",
			"pendingReward(address)": "f40f0f52",
			"potentiallyMinted()": "b95c9d23",
			"requiredBalance()": "08560ace",
			"revertFlag()": "a35e6491",
			"setApy(uint256,uint256)": "daf8bc10",
			"setBlocksInYear(uint256)": "c5fb862f",
			"toggleRevert()": "cdcdb10e",
			"token()": "fc0c546a",
			"totalShares()": "3a98ef39",
			"updateRewardPool()": "ab6a8b02",
			"userInfo(address)": "1959a002",
			"userUnlock(address,uint256)": "3626a0e0",
			"withdraw(uint256)": "2e1a7d4d",
			"withdrawAll()": "853828b6",
			"withdrawToken(address,address,uint256)": "01e33667"
		}
	},
	"abi": [
		{
			"inputs": [
				{
					"internalType": "contract IERC20",
					"name": "_token",
					"type": "address"
				},
				{
					"internalType": "uint256",
					"name": "_blocksInYear",
					"type": "uint256"
				}
			],
			"stateMutability": "nonpayable",
			"type": "constructor"
		},
		{
			"inputs": [],
			"name": "apyDown",
			"outputs": [
				{
					"internalType": "uint256",
					"name": "",
					"type": "uint256"
				}
			],
			"stateMutability": "view",
			"type": "function"
		},
		{
			"inputs": [],
			"name": "apyUp",
			"outputs": [
				{
					"internalType": "uint256",
					"name": "",
					"type": "uint256"
				}
			],
			"stateMutability": "view",
			"type": "function"
		},
		{
			"inputs": [],
			"name": "blocksInYear",
			"outputs": [
				{
					"internalType": "uint256",
					"name": "",
					"type": "uint256"
				}
			],
			"stateMutability": "view",
			"type": "function"
		},
		{
			"inputs": [
				{
					"internalType": "uint256",
					"name": "_delta",
					"type": "uint256"
				},
				{
					"internalType": "uint256",
					"name": "_amount",
					"type": "uint256"
				}
			],
			"name": "createTimeUnlock",
			"outputs": [],
			"stateMutability": "nonpayable",
			"type": "function"
		},
		{
			"inputs": [
				{
					"internalType": "uint256",
					"name": "_amount",
					"type": "uint256"
				}
			],
			"name": "deposit",
			"outputs": [],
			"stateMutability": "nonpayable",
			"type": "function"
		},
		{
			"inputs": [],
			"name": "lastRewardBlock",
			"outputs": [
				{
					"internalType": "uint256",
					"name": "",
					"type": "uint256"
				}
			],
			"stateMutability": "view",
			"type": "function"
		},
		{
			"inputs": [],
			"name": "owner",
			"outputs": [
				{
					"internalType": "address",
					"name": "",
					"type": "address"
				}
			],
			"stateMutability": "view",
			"type": "function"
		},
		{
			"inputs": [
				{
					"internalType": "address",
					"name": "_user",
					"type": "address"
				}
			],
			"name": "pendingReward",
			"outputs": [
				{
					"internalType": "uint256",
					"name": "",
					"type": "uint256"
				}
			],
			"stateMutability": "view",
			"type": "function"
		},
		{
			"inputs": [],
			"name": "potentiallyMinted",
			"outputs": [
				{
					"internalType": "uint256",
					"name": "",
					"type": "uint256"
				}
			],
			"stateMutability": "view",
			"type": "function"
		},
		{
			"inputs": [],
			"name": "requiredBalance",
			"outputs": [
				{
					"internalType": "uint256",
					"name": "",
					"type": "uint256"
				}
			],
			"stateMutability": "view",
			"type": "function"
		},
		{
			"inputs": [],
			"name": "revertFlag",
			"outputs": [
				{
					"internalType": "bool",
					"name": "",
					"type": "bool"
				}
			],
			"stateMutability": "view",
			"type": "function"
		},
		{
			"inputs": [
				{
					"internalType": "uint256",
					"name": "_apyUp",
					"type": "uint256"
				},
				{
					"internalType": "uint256",
					"name": "_apyDown",
					"type": "uint256"
				}
			],
			"name": "setApy",
			"outputs": [],
			"stateMutability": "nonpayable",
			"type": "function"
		},
		{
			"inputs": [
				{
					"internalType": "uint256",
					"name": "_blocksInYear",
					"type": "uint256"
				}
			],
			"name": "setBlocksInYear",
			"outputs": [],
			"stateMutability": "nonpayable",
			"type": "function"
		},
		{
			"inputs": [],
			"name": "toggleRevert",
			"outputs": [],
			"stateMutability": "nonpayable",
			"type": "function"
		},
		{
			"inputs": [],
			"name": "token",
			"outputs": [
				{
					"internalType": "contract IERC20",
					"name": "",
					"type": "address"
				}
			],
			"stateMutability": "view",
			"type": "function"
		},
		{
			"inputs": [],
			"name": "totalShares",
			"outputs": [
				{
					"internalType": "uint256",
					"name": "",
					"type": "uint256"
				}
			],
			"stateMutability": "view",
			"type": "function"
		},
		{
			"inputs": [],
			"name": "updateRewardPool",
			"outputs": [],
			"stateMutability": "nonpayable",
			"type": "function"
		},
		{
			"inputs": [
				{
					"internalType": "address",
					"name": "",
					"type": "address"
				}
			],
			"name": "userInfo",
			"outputs": [
				{
					"internalType": "uint256",
					"name": "share",
					"type": "uint256"
				},
				{
					"internalType": "uint256",
					"name": "tokenAtLastUserAction",
					"type": "uint256"
				},
				{
					"internalType": "uint256",
					"name": "rewardDebt",
					"type": "uint256"
				}
			],
			"stateMutability": "view",
			"type": "function"
		},
		{
			"inputs": [
				{
					"internalType": "address",
					"name": "",
					"type": "address"
				},
				{
					"internalType": "uint256",
					"name": "",
					"type": "uint256"
				}
			],
			"name": "userUnlock",
			"outputs": [
				{
					"internalType": "uint256",
					"name": "delta",
					"type": "uint256"
				},
				{
					"internalType": "uint256",
					"name": "amount",
					"type": "uint256"
				},
				{
					"internalType": "uint256",
					"name": "startBlock",
					"type": "uint256"
				}
			],
			"stateMutability": "view",
			"type": "function"
		},
		{
			"inputs": [
				{
					"internalType": "uint256",
					"name": "_share",
					"type": "uint256"
				}
			],
			"name": "withdraw",
			"outputs": [],
			"stateMutability": "nonpayable",
			"type": "function"
		},
		{
			"inputs": [],
			"name": "withdrawAll",
			"outputs": [],
			"stateMutability": "nonpayable",
			"type": "function"
		},
		{
			"inputs": [
				{
					"internalType": "contract IERC20",
					"name": "_token",
					"type": "address"
				},
				{
					"internalType": "address",
					"name": "_to",
					"type": "address"
				},
				{
					"internalType": "uint256",
					"name": "_amount",
					"type": "uint256"
				}
			],
			"name": "withdrawToken",
			"outputs": [],
			"stateMutability": "nonpayable",
			"type": "function"
		}
	]
}